{
  "contractName": "Quotes",
  "abi": [
    {
      "inputs": [
        {
          "internalType": "string",
          "name": "_quote",
          "type": "string"
        },
        {
          "internalType": "address",
          "name": "trustedForwarder",
          "type": "address"
        }
      ],
      "stateMutability": "nonpayable",
      "type": "constructor"
    },
    {
      "inputs": [],
      "name": "forwarder",
      "outputs": [
        {
          "internalType": "address",
          "name": "",
          "type": "address"
        }
      ],
      "stateMutability": "view",
      "type": "function",
      "constant": true
    },
    {
      "inputs": [
        {
          "internalType": "address",
          "name": "forwarder",
          "type": "address"
        }
      ],
      "name": "isTrustedForwarder",
      "outputs": [
        {
          "internalType": "bool",
          "name": "",
          "type": "bool"
        }
      ],
      "stateMutability": "view",
      "type": "function",
      "constant": true
    },
    {
      "inputs": [],
      "name": "owner",
      "outputs": [
        {
          "internalType": "address",
          "name": "",
          "type": "address"
        }
      ],
      "stateMutability": "view",
      "type": "function",
      "constant": true
    },
    {
      "inputs": [],
      "name": "quote",
      "outputs": [
        {
          "internalType": "string",
          "name": "",
          "type": "string"
        }
      ],
      "stateMutability": "view",
      "type": "function",
      "constant": true
    },
    {
      "inputs": [],
      "name": "trustedForwarder",
      "outputs": [
        {
          "internalType": "address",
          "name": "",
          "type": "address"
        }
      ],
      "stateMutability": "view",
      "type": "function",
      "constant": true
    },
    {
      "inputs": [],
      "name": "versionRecipient",
      "outputs": [
        {
          "internalType": "string",
          "name": "",
          "type": "string"
        }
      ],
      "stateMutability": "view",
      "type": "function",
      "constant": true
    },
    {
      "inputs": [],
      "name": "getQuote",
      "outputs": [
        {
          "internalType": "string",
          "name": "",
          "type": "string"
        }
      ],
      "stateMutability": "view",
      "type": "function",
      "constant": true
    },
    {
      "inputs": [
        {
          "internalType": "string",
          "name": "_quote",
          "type": "string"
        }
      ],
      "name": "setQuote",
      "outputs": [],
      "stateMutability": "nonpayable",
      "type": "function"
    },
    {
      "inputs": [
        {
          "internalType": "address",
          "name": "_forwarder",
          "type": "address"
        }
      ],
      "name": "setForwarder",
      "outputs": [],
      "stateMutability": "nonpayable",
      "type": "function"
    },
    {
      "inputs": [],
      "name": "getForwarder",
      "outputs": [
        {
          "internalType": "address",
          "name": "",
          "type": "address"
        }
      ],
      "stateMutability": "view",
      "type": "function",
      "constant": true
    }
  ],
  "bytecode": "0x60806040526040518060400160405280600581526020017f322e302e300000000000000000000000000000000000000000000000000000008152506004908051906020019062000051929190620001d2565b503480156200005f57600080fd5b5060405162000f3138038062000f31833981810160405281019062000085919062000484565b81600190805190602001906200009d929190620001d2565b50620000ae6200013760201b60201c565b600260006101000a81548173ffffffffffffffffffffffffffffffffffffffff021916908373ffffffffffffffffffffffffffffffffffffffff16021790555080600360006101000a81548173ffffffffffffffffffffffffffffffffffffffff021916908373ffffffffffffffffffffffffffffffffffffffff16021790555050506200054f565b600060146000369050101580156200015c57506200015b336200017960201b60201c565b5b156200017257601436033560601c905062000176565b3390505b90565b60008060009054906101000a900473ffffffffffffffffffffffffffffffffffffffff1673ffffffffffffffffffffffffffffffffffffffff168273ffffffffffffffffffffffffffffffffffffffff16149050919050565b828054620001e09062000519565b90600052602060002090601f01602090048101928262000204576000855562000250565b82601f106200021f57805160ff191683800117855562000250565b8280016001018555821562000250579182015b828111156200024f57825182559160200191906001019062000232565b5b5090506200025f919062000263565b5090565b5b808211156200027e57600081600090555060010162000264565b5090565b6000604051905090565b600080fd5b600080fd5b600080fd5b600080fd5b6000601f19601f8301169050919050565b7f4e487b7100000000000000000000000000000000000000000000000000000000600052604160045260246000fd5b620002eb82620002a0565b810181811067ffffffffffffffff821117156200030d576200030c620002b1565b5b80604052505050565b60006200032262000282565b9050620003308282620002e0565b919050565b600067ffffffffffffffff821115620003535762000352620002b1565b5b6200035e82620002a0565b9050602081019050919050565b60005b838110156200038b5780820151818401526020810190506200036e565b838111156200039b576000848401525b50505050565b6000620003b8620003b28462000335565b62000316565b905082815260208101848484011115620003d757620003d66200029b565b5b620003e48482856200036b565b509392505050565b600082601f83011262000404576200040362000296565b5b815162000416848260208601620003a1565b91505092915050565b600073ffffffffffffffffffffffffffffffffffffffff82169050919050565b60006200044c826200041f565b9050919050565b6200045e816200043f565b81146200046a57600080fd5b50565b6000815190506200047e8162000453565b92915050565b600080604083850312156200049e576200049d6200028c565b5b600083015167ffffffffffffffff811115620004bf57620004be62000291565b5b620004cd85828601620003ec565b9250506020620004e0858286016200046d565b9150509250929050565b7f4e487b7100000000000000000000000000000000000000000000000000000000600052602260045260246000fd5b600060028204905060018216806200053257607f821691505b60208210811415620005495762000548620004ea565b5b50919050565b6109d2806200055f6000396000f3fe608060405234801561001057600080fd5b506004361061009e5760003560e01c8063999b93af11610066578063999b93af1461014b578063a004252614610169578063b9998a2414610187578063e3de1703146101a3578063f645d4f9146101bf5761009e565b8063171755b1146100a3578063486ff0cd146100c1578063572b6c05146100df5780637da0a8771461010f5780638da5cb5b1461012d575b600080fd5b6100ab6101dd565b6040516100b8919061069c565b60405180910390f35b6100c961026f565b6040516100d6919061069c565b60405180910390f35b6100f960048036038101906100f49190610730565b6102fd565b6040516101069190610778565b60405180910390f35b610117610356565b60405161012491906107a2565b60405180910390f35b61013561037f565b60405161014291906107a2565b60405180910390f35b6101536103a5565b604051610160919061069c565b60405180910390f35b610171610433565b60405161017e91906107a2565b60405180910390f35b6101a1600480360381019061019c9190610730565b61045d565b005b6101bd60048036038101906101b891906108f2565b6104a1565b005b6101c7610503565b6040516101d491906107a2565b60405180910390f35b6060600180546101ec9061096a565b80601f01602080910402602001604051908101604052809291908181526020018280546102189061096a565b80156102655780601f1061023a57610100808354040283529160200191610265565b820191906000526020600020905b81548152906001019060200180831161024857829003601f168201915b5050505050905090565b6004805461027c9061096a565b80601f01602080910402602001604051908101604052809291908181526020018280546102a89061096a565b80156102f55780601f106102ca576101008083540402835291602001916102f5565b820191906000526020600020905b8154815290600101906020018083116102d857829003601f168201915b505050505081565b60008060009054906101000a900473ffffffffffffffffffffffffffffffffffffffff1673ffffffffffffffffffffffffffffffffffffffff168273ffffffffffffffffffffffffffffffffffffffff16149050919050565b60008060009054906101000a900473ffffffffffffffffffffffffffffffffffffffff16905090565b600260009054906101000a900473ffffffffffffffffffffffffffffffffffffffff1681565b600180546103b29061096a565b80601f01602080910402602001604051908101604052809291908181526020018280546103de9061096a565b801561042b5780601f106104005761010080835404028352916020019161042b565b820191906000526020600020905b81548152906001019060200180831161040e57829003601f168201915b505050505081565b6000600360009054906101000a900473ffffffffffffffffffffffffffffffffffffffff16905090565b80600360006101000a81548173ffffffffffffffffffffffffffffffffffffffff021916908373ffffffffffffffffffffffffffffffffffffffff16021790555050565b80600190805190602001906104b7929190610560565b506104c0610529565b600260006101000a81548173ffffffffffffffffffffffffffffffffffffffff021916908373ffffffffffffffffffffffffffffffffffffffff16021790555050565b600360009054906101000a900473ffffffffffffffffffffffffffffffffffffffff1681565b600060146000369050101580156105455750610544336102fd565b5b1561055957601436033560601c905061055d565b3390505b90565b82805461056c9061096a565b90600052602060002090601f01602090048101928261058e57600085556105d5565b82601f106105a757805160ff19168380011785556105d5565b828001600101855582156105d5579182015b828111156105d45782518255916020019190600101906105b9565b5b5090506105e291906105e6565b5090565b5b808211156105ff5760008160009055506001016105e7565b5090565b600081519050919050565b600082825260208201905092915050565b60005b8381101561063d578082015181840152602081019050610622565b8381111561064c576000848401525b50505050565b6000601f19601f8301169050919050565b600061066e82610603565b610678818561060e565b935061068881856020860161061f565b61069181610652565b840191505092915050565b600060208201905081810360008301526106b68184610663565b905092915050565b6000604051905090565b600080fd5b600080fd5b600073ffffffffffffffffffffffffffffffffffffffff82169050919050565b60006106fd826106d2565b9050919050565b61070d816106f2565b811461071857600080fd5b50565b60008135905061072a81610704565b92915050565b600060208284031215610746576107456106c8565b5b60006107548482850161071b565b91505092915050565b60008115159050919050565b6107728161075d565b82525050565b600060208201905061078d6000830184610769565b92915050565b61079c816106f2565b82525050565b60006020820190506107b76000830184610793565b92915050565b600080fd5b600080fd5b7f4e487b7100000000000000000000000000000000000000000000000000000000600052604160045260246000fd5b6107ff82610652565b810181811067ffffffffffffffff8211171561081e5761081d6107c7565b5b80604052505050565b60006108316106be565b905061083d82826107f6565b919050565b600067ffffffffffffffff82111561085d5761085c6107c7565b5b61086682610652565b9050602081019050919050565b82818337600083830152505050565b600061089561089084610842565b610827565b9050828152602081018484840111156108b1576108b06107c2565b5b6108bc848285610873565b509392505050565b600082601f8301126108d9576108d86107bd565b5b81356108e9848260208601610882565b91505092915050565b600060208284031215610908576109076106c8565b5b600082013567ffffffffffffffff811115610926576109256106cd565b5b610932848285016108c4565b91505092915050565b7f4e487b7100000000000000000000000000000000000000000000000000000000600052602260045260246000fd5b6000600282049050600182168061098257607f821691505b602082108114156109965761099561093b565b5b5091905056fea2646970667358221220642f414a1fa83b58ef1035b7e11da20fdd42693591972cde3d6bac209be73c0464736f6c634300080b0033",
  "immutableReferences": {},
  "source": "// SPDX-License-Identifier: MIT\npragma solidity 0.8.11;\n\nimport \"@opengsn/contracts/src/BaseRelayRecipient.sol\";\n\ncontract Quotes is BaseRelayRecipient {\n\n    string public quote;\n    address public owner;\n    address public forwarder;\n    string public override versionRecipient = \"2.0.0\";\n\n    constructor(string memory _quote, address trustedForwarder) {\n        quote = _quote;\n        owner = _msgSender();\n        forwarder = trustedForwarder;\n    }\n\n    function getQuote() public view returns (string memory) {\n        return quote;\n    }\n\n    function setQuote(string memory _quote) public {\n        quote = _quote;\n        owner = _msgSender();\n    }\n\n    function setForwarder(address _forwarder) public {\n        forwarder = _forwarder;\n    }\n\n    function getForwarder() public view returns (address) {\n        return forwarder;\n    }\n}",
  "sourcePath": "/Users/surajranvare/Desktop/Examples/biconomy-example-app/truffle-biconomy/contracts/Quotes.sol",
  "compiler": {
    "name": "solc",
    "version": "0.8.11+commit.d7f03943.Emscripten.clang"
  },
  "schemaVersion": "3.4.4",
  "updatedAt": "2022-02-17T08:25:06.556Z",
  "networkType": "ethereum",
  "devdoc": {
    "kind": "dev",
    "methods": {},
    "version": 1
  },
  "userdoc": {
    "kind": "user",
    "methods": {
      "isTrustedForwarder(address)": {
        "notice": "return if the forwarder is trusted to forward relayed transactions to us. the forwarder is required to verify the sender's signature, and verify the call is not a replay."
      }
    },
    "version": 1
  }
}